{
  "contractName": "SimpleToken",
  "abi": [
    {
      "inputs": [
        {
          "internalType": "string",
          "name": "_name",
          "type": "string"
        },
        {
          "internalType": "string",
          "name": "_symbol",
          "type": "string"
        },
        {
          "internalType": "uint8",
          "name": "_decimals",
          "type": "uint8"
        },
        {
          "internalType": "uint256",
          "name": "_initialSupply",
          "type": "uint256"
        }
      ],
      "stateMutability": "nonpayable",
      "type": "constructor"
    },
    {
      "anonymous": false,
      "inputs": [
        {
          "indexed": true,
          "internalType": "address",
          "name": "from",
          "type": "address"
        },
        {
          "indexed": true,
          "internalType": "address",
          "name": "to",
          "type": "address"
        },
        {
          "indexed": false,
          "internalType": "uint256",
          "name": "value",
          "type": "uint256"
        }
      ],
      "name": "Transfer",
      "type": "event"
    },
    {
      "inputs": [
        {
          "internalType": "address",
          "name": "",
          "type": "address"
        }
      ],
      "name": "balanceOf",
      "outputs": [
        {
          "internalType": "uint256",
          "name": "",
          "type": "uint256"
        }
      ],
      "stateMutability": "view",
      "type": "function",
      "constant": true
    },
    {
      "inputs": [],
      "name": "decimals",
      "outputs": [
        {
          "internalType": "uint8",
          "name": "",
          "type": "uint8"
        }
      ],
      "stateMutability": "view",
      "type": "function",
      "constant": true
    },
    {
      "inputs": [],
      "name": "name",
      "outputs": [
        {
          "internalType": "string",
          "name": "",
          "type": "string"
        }
      ],
      "stateMutability": "view",
      "type": "function",
      "constant": true
    },
    {
      "inputs": [],
      "name": "symbol",
      "outputs": [
        {
          "internalType": "string",
          "name": "",
          "type": "string"
        }
      ],
      "stateMutability": "view",
      "type": "function",
      "constant": true
    },
    {
      "inputs": [],
      "name": "totalSupply",
      "outputs": [
        {
          "internalType": "uint256",
          "name": "",
          "type": "uint256"
        }
      ],
      "stateMutability": "view",
      "type": "function",
      "constant": true
    },
    {
      "inputs": [
        {
          "internalType": "address",
          "name": "_to",
          "type": "address"
        },
        {
          "internalType": "uint256",
          "name": "_value",
          "type": "uint256"
        }
      ],
      "name": "transfer",
      "outputs": [
        {
          "internalType": "bool",
          "name": "",
          "type": "bool"
        }
      ],
      "stateMutability": "nonpayable",
      "type": "function"
    },
    {
      "inputs": [
        {
          "internalType": "uint256",
          "name": "_amount",
          "type": "uint256"
        }
      ],
      "name": "mint",
      "outputs": [],
      "stateMutability": "nonpayable",
      "type": "function"
    }
  ],
  "bytecode": "0x608060405234801562000010575f80fd5b50604051620011dc380380620011dc8339818101604052810190620000369190620002ec565b835f9081620000469190620005c7565b508260019081620000589190620005c7565b508160025f6101000a81548160ff021916908360ff16021790555060025f9054906101000a900460ff1660ff16600a62000093919062000828565b81620000a0919062000878565b60038190555060035460045f3373ffffffffffffffffffffffffffffffffffffffff1673ffffffffffffffffffffffffffffffffffffffff1681526020019081526020015f208190555050505050620008c2565b5f604051905090565b5f80fd5b5f80fd5b5f80fd5b5f80fd5b5f601f19601f8301169050919050565b7f4e487b71000000000000000000000000000000000000000000000000000000005f52604160045260245ffd5b62000155826200010d565b810181811067ffffffffffffffff821117156200017757620001766200011d565b5b80604052505050565b5f6200018b620000f4565b90506200019982826200014a565b919050565b5f67ffffffffffffffff821115620001bb57620001ba6200011d565b5b620001c6826200010d565b9050602081019050919050565b5f5b83811015620001f2578082015181840152602081019050620001d5565b5f8484015250505050565b5f620002136200020d846200019e565b62000180565b90508281526020810184848401111562000232576200023162000109565b5b6200023f848285620001d3565b509392505050565b5f82601f8301126200025e576200025d62000105565b5b815162000270848260208601620001fd565b91505092915050565b5f60ff82169050919050565b620002908162000279565b81146200029b575f80fd5b50565b5f81519050620002ae8162000285565b92915050565b5f819050919050565b620002c881620002b4565b8114620002d3575f80fd5b50565b5f81519050620002e681620002bd565b92915050565b5f805f8060808587031215620003075762000306620000fd565b5b5f85015167ffffffffffffffff81111562000327576200032662000101565b5b620003358782880162000247565b945050602085015167ffffffffffffffff81111562000359576200035862000101565b5b620003678782880162000247565b93505060406200037a878288016200029e565b92505060606200038d87828801620002d6565b91505092959194509250565b5f81519050919050565b7f4e487b71000000000000000000000000000000000000000000000000000000005f52602260045260245ffd5b5f6002820490506001821680620003e857607f821691505b602082108103620003fe57620003fd620003a3565b5b50919050565b5f819050815f5260205f209050919050565b5f6020601f8301049050919050565b5f82821b905092915050565b5f60088302620004627fffffffffffffffffffffffffffffffffffffffffffffffffffffffffffffffff8262000425565b6200046e868362000425565b95508019841693508086168417925050509392505050565b5f819050919050565b5f620004af620004a9620004a384620002b4565b62000486565b620002b4565b9050919050565b5f819050919050565b620004ca836200048f565b620004e2620004d982620004b6565b84845462000431565b825550505050565b5f90565b620004f8620004ea565b62000505818484620004bf565b505050565b5b818110156200052c57620005205f82620004ee565b6001810190506200050b565b5050565b601f8211156200057b57620005458162000404565b620005508462000416565b8101602085101562000560578190505b620005786200056f8562000416565b8301826200050a565b50505b505050565b5f82821c905092915050565b5f6200059d5f198460080262000580565b1980831691505092915050565b5f620005b783836200058c565b9150826002028217905092915050565b620005d28262000399565b67ffffffffffffffff811115620005ee57620005ed6200011d565b5b620005fa8254620003d0565b6200060782828562000530565b5f60209050601f8311600181146200063d575f841562000628578287015190505b620006348582620005aa565b865550620006a3565b601f1984166200064d8662000404565b5f5b8281101562000676578489015182556001820191506020850194506020810190506200064f565b8683101562000696578489015162000692601f8916826200058c565b8355505b6001600288020188555050505b505050505050565b7f4e487b71000000000000000000000000000000000000000000000000000000005f52601160045260245ffd5b5f8160011c9050919050565b5f808291508390505b600185111562000735578086048111156200070d576200070c620006ab565b5b60018516156200071d5780820291505b80810290506200072d85620006d8565b9450620006ed565b94509492505050565b5f826200074f576001905062000821565b816200075e575f905062000821565b81600181146200077757600281146200078257620007b8565b600191505062000821565b60ff841115620007975762000796620006ab565b5b8360020a915084821115620007b157620007b0620006ab565b5b5062000821565b5060208310610133831016604e8410600b8410161715620007f25782820a905083811115620007ec57620007eb620006ab565b5b62000821565b620008018484846001620006e4565b925090508184048111156200081b576200081a620006ab565b5b81810290505b9392505050565b5f6200083482620002b4565b91506200084183620002b4565b9250620008707fffffffffffffffffffffffffffffffffffffffffffffffffffffffffffffffff84846200073e565b905092915050565b5f6200088482620002b4565b91506200089183620002b4565b9250828202620008a181620002b4565b91508282048414831517620008bb57620008ba620006ab565b5b5092915050565b61090c80620008d05f395ff3fe608060405234801561000f575f80fd5b506004361061007b575f3560e01c806370a082311161005957806370a08231146100d957806395d89b4114610109578063a0712d6814610127578063a9059cbb146101435761007b565b806306fdde031461007f57806318160ddd1461009d578063313ce567146100bb575b5f80fd5b610087610173565b60405161009491906105aa565b60405180910390f35b6100a56101fe565b6040516100b291906105e2565b60405180910390f35b6100c3610204565b6040516100d09190610616565b60405180910390f35b6100f360048036038101906100ee919061068d565b610216565b60405161010091906105e2565b60405180910390f35b61011161022b565b60405161011e91906105aa565b60405180910390f35b610141600480360381019061013c91906106e2565b6102b7565b005b61015d6004803603810190610158919061070d565b61038a565b60405161016a9190610765565b60405180910390f35b5f805461017f906107ab565b80601f01602080910402602001604051908101604052809291908181526020018280546101ab906107ab565b80156101f65780601f106101cd576101008083540402835291602001916101f6565b820191905f5260205f20905b8154815290600101906020018083116101d957829003601f168201915b505050505081565b60035481565b60025f9054906101000a900460ff1681565b6004602052805f5260405f205f915090505481565b60018054610238906107ab565b80601f0160208091040260200160405190810160405280929190818152602001828054610264906107ab565b80156102af5780601f10610286576101008083540402835291602001916102af565b820191905f5260205f20905b81548152906001019060200180831161029257829003601f168201915b505050505081565b8060045f3373ffffffffffffffffffffffffffffffffffffffff1673ffffffffffffffffffffffffffffffffffffffff1681526020019081526020015f205f8282546103039190610808565b925050819055508060035f82825461031b9190610808565b925050819055503373ffffffffffffffffffffffffffffffffffffffff165f73ffffffffffffffffffffffffffffffffffffffff167fddf252ad1be2c89b69c2b068fc378daa952ba7f163c4a11628f55a4df523b3ef8360405161037f91906105e2565b60405180910390a350565b5f8160045f3373ffffffffffffffffffffffffffffffffffffffff1673ffffffffffffffffffffffffffffffffffffffff1681526020019081526020015f2054101561040b576040517f08c379a000000000000000000000000000000000000000000000000000000000815260040161040290610885565b60405180910390fd5b8160045f3373ffffffffffffffffffffffffffffffffffffffff1673ffffffffffffffffffffffffffffffffffffffff1681526020019081526020015f205f82825461045791906108a3565b925050819055508160045f8573ffffffffffffffffffffffffffffffffffffffff1673ffffffffffffffffffffffffffffffffffffffff1681526020019081526020015f205f8282546104aa9190610808565b925050819055508273ffffffffffffffffffffffffffffffffffffffff163373ffffffffffffffffffffffffffffffffffffffff167fddf252ad1be2c89b69c2b068fc378daa952ba7f163c4a11628f55a4df523b3ef8460405161050e91906105e2565b60405180910390a36001905092915050565b5f81519050919050565b5f82825260208201905092915050565b5f5b8381101561055757808201518184015260208101905061053c565b5f8484015250505050565b5f601f19601f8301169050919050565b5f61057c82610520565b610586818561052a565b935061059681856020860161053a565b61059f81610562565b840191505092915050565b5f6020820190508181035f8301526105c28184610572565b905092915050565b5f819050919050565b6105dc816105ca565b82525050565b5f6020820190506105f55f8301846105d3565b92915050565b5f60ff82169050919050565b610610816105fb565b82525050565b5f6020820190506106295f830184610607565b92915050565b5f80fd5b5f73ffffffffffffffffffffffffffffffffffffffff82169050919050565b5f61065c82610633565b9050919050565b61066c81610652565b8114610676575f80fd5b50565b5f8135905061068781610663565b92915050565b5f602082840312156106a2576106a161062f565b5b5f6106af84828501610679565b91505092915050565b6106c1816105ca565b81146106cb575f80fd5b50565b5f813590506106dc816106b8565b92915050565b5f602082840312156106f7576106f661062f565b5b5f610704848285016106ce565b91505092915050565b5f80604083850312156107235761072261062f565b5b5f61073085828601610679565b9250506020610741858286016106ce565b9150509250929050565b5f8115159050919050565b61075f8161074b565b82525050565b5f6020820190506107785f830184610756565b92915050565b7f4e487b71000000000000000000000000000000000000000000000000000000005f52602260045260245ffd5b5f60028204905060018216806107c257607f821691505b6020821081036107d5576107d461077e565b5b50919050565b7f4e487b71000000000000000000000000000000000000000000000000000000005f52601160045260245ffd5b5f610812826105ca565b915061081d836105ca565b9250828201905080821115610835576108346107db565b5b92915050565b7f496e73756666696369656e742062616c616e63650000000000000000000000005f82015250565b5f61086f60148361052a565b915061087a8261083b565b602082019050919050565b5f6020820190508181035f83015261089c81610863565b9050919050565b5f6108ad826105ca565b91506108b8836105ca565b92508282039050818111156108d0576108cf6107db565b5b9291505056fea2646970667358221220193611c0d525de568f24c564c45486cf0ce0558817ec1c47d34ab54de27d873964736f6c63430008140033",
  "immutableReferences": {},
  "source": "// SPDX-License-Identifier: MIT\npragma solidity ^0.8.0;\n\ncontract SimpleToken {\n    string public name;\n    string public symbol;\n    uint8 public decimals;\n    uint256 public totalSupply;\n\n    mapping(address => uint256) public balanceOf;\n\n    event Transfer(address indexed from, address indexed to, uint256 value);\n\n    constructor(string memory _name, string memory _symbol, uint8 _decimals, uint256 _initialSupply) {\n        name = _name;\n        symbol = _symbol;\n        decimals = _decimals;\n        totalSupply = _initialSupply * (10 ** uint256(decimals));\n        balanceOf[msg.sender] = totalSupply;\n    }\n\n    function transfer(address _to, uint256 _value) public returns (bool) {\n        require(balanceOf[msg.sender] >= _value, \"Insufficient balance\");\n        balanceOf[msg.sender] -= _value;\n        balanceOf[_to] += _value;\n        emit Transfer(msg.sender, _to, _value);\n        return true;\n    }\n\n    // Custom function to mint new tokens\n    function mint(uint256 _amount) public {\n        balanceOf[msg.sender] += _amount;\n        totalSupply += _amount;\n        emit Transfer(address(0), msg.sender, _amount);\n    }\n}\n",
  "sourcePath": "/home/nice/Workspace/smart_contract/contracts/SimpleToken.sol",
  "compiler": {
    "name": "solc",
    "version": "0.8.20+commit.a1b79de6.Emscripten.clang"
  },
  "schemaVersion": "3.4.14",
  "updatedAt": "2023-08-01T20:02:41.699Z",
  "networkType": "ethereum",
  "devdoc": {
    "kind": "dev",
    "methods": {},
    "version": 1
  },
  "userdoc": {
    "kind": "user",
    "methods": {},
    "version": 1
  }
}